{
  "contractName": "Voting",
  "abi": [
    {
      "anonymous": false,
      "inputs": [
        {
          "indexed": true,
          "internalType": "address",
          "name": "previousOwner",
          "type": "address"
        },
        {
          "indexed": true,
          "internalType": "address",
          "name": "newOwner",
          "type": "address"
        }
      ],
      "name": "OwnershipTransferred",
      "type": "event"
    },
    {
      "anonymous": false,
      "inputs": [
        {
          "indexed": false,
          "internalType": "uint256",
          "name": "_proposalId",
          "type": "uint256"
        }
      ],
      "name": "ProposalRegistered",
      "type": "event"
    },
    {
      "anonymous": false,
      "inputs": [
        {
          "indexed": false,
          "internalType": "address",
          "name": "_voter",
          "type": "address"
        },
        {
          "indexed": false,
          "internalType": "uint256",
          "name": "_proposalId",
          "type": "uint256"
        }
      ],
      "name": "Voted",
      "type": "event"
    },
    {
      "anonymous": false,
      "inputs": [
        {
          "indexed": false,
          "internalType": "address",
          "name": "_voterAddress",
          "type": "address"
        }
      ],
      "name": "VoterRegistered",
      "type": "event"
    },
    {
      "anonymous": false,
      "inputs": [
        {
          "indexed": false,
          "internalType": "enum Voting.WorkflowStatus",
          "name": "_previousStatus",
          "type": "uint8"
        },
        {
          "indexed": false,
          "internalType": "enum Voting.WorkflowStatus",
          "name": "_newStatus",
          "type": "uint8"
        }
      ],
      "name": "WorkflowStatusChange",
      "type": "event"
    },
    {
      "inputs": [],
      "name": "owner",
      "outputs": [
        {
          "internalType": "address",
          "name": "",
          "type": "address"
        }
      ],
      "stateMutability": "view",
      "type": "function",
      "constant": true
    },
    {
      "inputs": [
        {
          "internalType": "uint256",
          "name": "",
          "type": "uint256"
        }
      ],
      "name": "proposalsArray",
      "outputs": [
        {
          "internalType": "string",
          "name": "description",
          "type": "string"
        },
        {
          "internalType": "uint256",
          "name": "voteCount",
          "type": "uint256"
        }
      ],
      "stateMutability": "view",
      "type": "function",
      "constant": true
    },
    {
      "inputs": [],
      "name": "renounceOwnership",
      "outputs": [],
      "stateMutability": "nonpayable",
      "type": "function"
    },
    {
      "inputs": [
        {
          "internalType": "address",
          "name": "newOwner",
          "type": "address"
        }
      ],
      "name": "transferOwnership",
      "outputs": [],
      "stateMutability": "nonpayable",
      "type": "function"
    },
    {
      "inputs": [],
      "name": "winningProposalId",
      "outputs": [
        {
          "internalType": "uint256",
          "name": "",
          "type": "uint256"
        }
      ],
      "stateMutability": "view",
      "type": "function",
      "constant": true
    },
    {
      "inputs": [],
      "name": "workflowStatus",
      "outputs": [
        {
          "internalType": "enum Voting.WorkflowStatus",
          "name": "",
          "type": "uint8"
        }
      ],
      "stateMutability": "view",
      "type": "function",
      "constant": true
    },
    {
      "inputs": [
        {
          "internalType": "address",
          "name": "_addr",
          "type": "address"
        }
      ],
      "name": "getVoter",
      "outputs": [
        {
          "components": [
            {
              "internalType": "bool",
              "name": "isRegistered",
              "type": "bool"
            },
            {
              "internalType": "bool",
              "name": "hasVoted",
              "type": "bool"
            },
            {
              "internalType": "uint256",
              "name": "votedProposalId",
              "type": "uint256"
            }
          ],
          "internalType": "struct Voting.Voter",
          "name": "",
          "type": "tuple"
        }
      ],
      "stateMutability": "view",
      "type": "function",
      "constant": true
    },
    {
      "inputs": [
        {
          "internalType": "uint256",
          "name": "_id",
          "type": "uint256"
        }
      ],
      "name": "getOneProposal",
      "outputs": [
        {
          "components": [
            {
              "internalType": "string",
              "name": "description",
              "type": "string"
            },
            {
              "internalType": "uint256",
              "name": "voteCount",
              "type": "uint256"
            }
          ],
          "internalType": "struct Voting.Proposal",
          "name": "",
          "type": "tuple"
        }
      ],
      "stateMutability": "view",
      "type": "function",
      "constant": true
    },
    {
      "inputs": [],
      "name": "getWinner",
      "outputs": [
        {
          "components": [
            {
              "internalType": "string",
              "name": "description",
              "type": "string"
            },
            {
              "internalType": "uint256",
              "name": "voteCount",
              "type": "uint256"
            }
          ],
          "internalType": "struct Voting.Proposal",
          "name": "",
          "type": "tuple"
        }
      ],
      "stateMutability": "view",
      "type": "function",
      "constant": true
    },
    {
      "inputs": [
        {
          "internalType": "address",
          "name": "_addr",
          "type": "address"
        }
      ],
      "name": "addVoter",
      "outputs": [],
      "stateMutability": "nonpayable",
      "type": "function"
    },
    {
      "inputs": [
        {
          "internalType": "string",
          "name": "_desc",
          "type": "string"
        }
      ],
      "name": "addProposal",
      "outputs": [],
      "stateMutability": "nonpayable",
      "type": "function"
    },
    {
      "inputs": [
        {
          "internalType": "uint256",
          "name": "_id",
          "type": "uint256"
        }
      ],
      "name": "setVote",
      "outputs": [],
      "stateMutability": "nonpayable",
      "type": "function"
    },
    {
      "inputs": [],
      "name": "startProposalsRegistering",
      "outputs": [],
      "stateMutability": "nonpayable",
      "type": "function"
    },
    {
      "inputs": [],
      "name": "endProposalsRegistering",
      "outputs": [],
      "stateMutability": "nonpayable",
      "type": "function"
    },
    {
      "inputs": [],
      "name": "startVotingSession",
      "outputs": [],
      "stateMutability": "nonpayable",
      "type": "function"
    },
    {
      "inputs": [],
      "name": "endVotingSession",
      "outputs": [],
      "stateMutability": "nonpayable",
      "type": "function"
    },
    {
      "inputs": [],
      "name": "tallyVotes",
      "outputs": [],
      "stateMutability": "nonpayable",
      "type": "function"
    }
  ],
  "bytecode": "0x60806040523480156200001157600080fd5b5062000032620000266200003860201b60201c565b6200004060201b60201c565b62000104565b600033905090565b60008060009054906101000a900473ffffffffffffffffffffffffffffffffffffffff169050816000806101000a81548173ffffffffffffffffffffffffffffffffffffffff021916908373ffffffffffffffffffffffffffffffffffffffff1602179055508173ffffffffffffffffffffffffffffffffffffffff168173ffffffffffffffffffffffffffffffffffffffff167f8be0079c531659141344cd1fd0a4f28419497f9722a3daafe3b4186f6b6457e060405160405180910390a35050565b61288380620001146000396000f3fe608060405234801561001057600080fd5b506004361061010b5760003560e01c8063a7bfab16116100a2578063d4f50f9811610071578063d4f50f9814610222578063ee74c67814610252578063f2fde38b1461025c578063f4ab9adf14610278578063f86c6779146102945761010b565b8063a7bfab16146101e6578063c64963c5146101f0578063c7038a4e1461020e578063c88af42f146102185761010b565b80638da5cb5b116100de5780638da5cb5b1461015c5780638e7ea5b21461017a578063a1edffa214610198578063a2788cce146101b65761010b565b8063230796ae146101105780632fdae3c51461012c578063378a217814610148578063715018a614610152575b600080fd5b61012a600480360381019061012591906119be565b6102c5565b005b61014660048036038101906101419190611b31565b6105c2565b005b610150610806565b005b61015a6109e6565b005b610164610a6e565b6040516101719190611bbb565b60405180910390f35b610182610a97565b60405161018f9190611caa565b60405180910390f35b6101a0610be4565b6040516101ad9190611d43565b60405180910390f35b6101d060048036038101906101cb91906119be565b610bf7565b6040516101dd9190611caa565b60405180910390f35b6101ee610d5e565b005b6101f8610eb8565b6040516102059190611d6d565b60405180910390f35b610216610ebe565b005b610220611018565b005b61023c60048036038101906102379190611db4565b611172565b6040516102499190611e3e565b60405180910390f35b61025a61129a565b005b61027660048036038101906102719190611db4565b6113f4565b005b610292600480360381019061028d9190611db4565b6114ec565b005b6102ae60048036038101906102a991906119be565b61170a565b6040516102bc929190611ea3565b60405180910390f35b600660003373ffffffffffffffffffffffffffffffffffffffff1673ffffffffffffffffffffffffffffffffffffffff16815260200190815260200160002060000160009054906101000a900460ff16610354576040517f08c379a000000000000000000000000000000000000000000000000000000000815260040161034b90611f1f565b60405180910390fd5b6003600581111561036857610367611ccc565b5b600560009054906101000a900460ff16600581111561038a57610389611ccc565b5b146103ca576040517f08c379a00000000000000000000000000000000000000000000000000000000081526004016103c190611fb1565b60405180910390fd5b60011515600660003373ffffffffffffffffffffffffffffffffffffffff1673ffffffffffffffffffffffffffffffffffffffff16815260200190815260200160002060000160019054906101000a900460ff1615151415610461576040517f08c379a00000000000000000000000000000000000000000000000000000000081526004016104589061201d565b60405180910390fd5b6004805490508111156104a9576040517f08c379a00000000000000000000000000000000000000000000000000000000081526004016104a090612089565b60405180910390fd5b80600660003373ffffffffffffffffffffffffffffffffffffffff1673ffffffffffffffffffffffffffffffffffffffff168152602001908152602001600020600101819055506001600660003373ffffffffffffffffffffffffffffffffffffffff1673ffffffffffffffffffffffffffffffffffffffff16815260200190815260200160002060000160016101000a81548160ff0219169083151502179055506004818154811061055f5761055e6120a9565b5b9060005260206000209060020201600101600081548092919061058190612107565b91905055507f4d99b957a2bc29a30ebd96a7be8e68fe50a3c701db28a91436490b7d53870ca433826040516105b7929190612150565b60405180910390a150565b600660003373ffffffffffffffffffffffffffffffffffffffff1673ffffffffffffffffffffffffffffffffffffffff16815260200190815260200160002060000160009054906101000a900460ff16610651576040517f08c379a000000000000000000000000000000000000000000000000000000000815260040161064890611f1f565b60405180910390fd5b6001600581111561066557610664611ccc565b5b600560009054906101000a900460ff16600581111561068757610686611ccc565b5b146106c7576040517f08c379a00000000000000000000000000000000000000000000000000000000081526004016106be906121c5565b60405180910390fd5b6040516020016106d69061220b565b60405160208183030381529060405280519060200120816040516020016106fd919061222b565b604051602081830303815290604052805190602001201415610754576040517f08c379a000000000000000000000000000000000000000000000000000000000815260040161074b906122bf565b60405180910390fd5b61075c611892565b818160000181905250600481908060018154018082558091505060019003906000526020600020906002020160009091909190915060008201518160000190805190602001906107ad9291906118ac565b506020820151816001015550507f92e393e9b54e2f801d3ea4beb0c5e71a21cc34a5d34b77d0fb8a3aa1650dc18f60016004805490506107ed91906122df565b6040516107fa9190611d6d565b60405180910390a15050565b61080e6117c6565b73ffffffffffffffffffffffffffffffffffffffff1661082c610a6e565b73ffffffffffffffffffffffffffffffffffffffff1614610882576040517f08c379a00000000000000000000000000000000000000000000000000000000081526004016108799061235f565b60405180910390fd5b6004600581111561089657610895611ccc565b5b600560009054906101000a900460ff1660058111156108b8576108b7611ccc565b5b146108f8576040517f08c379a00000000000000000000000000000000000000000000000000000000081526004016108ef906123f1565b60405180910390fd5b600080600090505b6004805490508110156109765760048281548110610921576109206120a9565b5b90600052602060002090600202016001015460048281548110610947576109466120a9565b5b9060005260206000209060020201600101541115610963578091505b808061096e90612107565b915050610900565b508060018190555060058060006101000a81548160ff021916908360058111156109a3576109a2611ccc565b5b02179055507f0a97a4ee45751e2abf3e4fc8946939630b11b371ea8ae39ccdc3056e98f5cc3f600460056040516109db929190612411565b60405180910390a150565b6109ee6117c6565b73ffffffffffffffffffffffffffffffffffffffff16610a0c610a6e565b73ffffffffffffffffffffffffffffffffffffffff1614610a62576040517f08c379a0000000000000000000000000000000000000000000000000000000008152600401610a599061235f565b60405180910390fd5b610a6c60006117ce565b565b60008060009054906101000a900473ffffffffffffffffffffffffffffffffffffffff16905090565b610a9f611892565b600580811115610ab257610ab1611ccc565b5b600560009054906101000a900460ff166005811115610ad457610ad3611ccc565b5b14610b14576040517f08c379a0000000000000000000000000000000000000000000000000000000008152600401610b0b90612486565b60405180910390fd5b600460015481548110610b2a57610b296120a9565b5b9060005260206000209060020201604051806040016040529081600082018054610b53906124d5565b80601f0160208091040260200160405190810160405280929190818152602001828054610b7f906124d5565b8015610bcc5780601f10610ba157610100808354040283529160200191610bcc565b820191906000526020600020905b815481529060010190602001808311610baf57829003601f168201915b50505050508152602001600182015481525050905090565b600560009054906101000a900460ff1681565b610bff611892565b600660003373ffffffffffffffffffffffffffffffffffffffff1673ffffffffffffffffffffffffffffffffffffffff16815260200190815260200160002060000160009054906101000a900460ff16610c8e576040517f08c379a0000000000000000000000000000000000000000000000000000000008152600401610c8590611f1f565b60405180910390fd5b60048281548110610ca257610ca16120a9565b5b9060005260206000209060020201604051806040016040529081600082018054610ccb906124d5565b80601f0160208091040260200160405190810160405280929190818152602001828054610cf7906124d5565b8015610d445780601f10610d1957610100808354040283529160200191610d44565b820191906000526020600020905b815481529060010190602001808311610d2757829003601f168201915b505050505081526020016001820154815250509050919050565b610d666117c6565b73ffffffffffffffffffffffffffffffffffffffff16610d84610a6e565b73ffffffffffffffffffffffffffffffffffffffff1614610dda576040517f08c379a0000000000000000000000000000000000000000000000000000000008152600401610dd19061235f565b60405180910390fd5b60036005811115610dee57610ded611ccc565b5b600560009054906101000a900460ff166005811115610e1057610e0f611ccc565b5b14610e50576040517f08c379a0000000000000000000000000000000000000000000000000000000008152600401610e4790611fb1565b60405180910390fd5b6004600560006101000a81548160ff02191690836005811115610e7657610e75611ccc565b5b02179055507f0a97a4ee45751e2abf3e4fc8946939630b11b371ea8ae39ccdc3056e98f5cc3f60036004604051610eae929190612411565b60405180910390a1565b60015481565b610ec66117c6565b73ffffffffffffffffffffffffffffffffffffffff16610ee4610a6e565b73ffffffffffffffffffffffffffffffffffffffff1614610f3a576040517f08c379a0000000000000000000000000000000000000000000000000000000008152600401610f319061235f565b60405180910390fd5b60006005811115610f4e57610f4d611ccc565b5b600560009054906101000a900460ff166005811115610f7057610f6f611ccc565b5b14610fb0576040517f08c379a0000000000000000000000000000000000000000000000000000000008152600401610fa790612579565b60405180910390fd5b6001600560006101000a81548160ff02191690836005811115610fd657610fd5611ccc565b5b02179055507f0a97a4ee45751e2abf3e4fc8946939630b11b371ea8ae39ccdc3056e98f5cc3f6000600160405161100e929190612411565b60405180910390a1565b6110206117c6565b73ffffffffffffffffffffffffffffffffffffffff1661103e610a6e565b73ffffffffffffffffffffffffffffffffffffffff1614611094576040517f08c379a000000000000000000000000000000000000000000000000000000000815260040161108b9061235f565b60405180910390fd5b600160058111156110a8576110a7611ccc565b5b600560009054906101000a900460ff1660058111156110ca576110c9611ccc565b5b1461110a576040517f08c379a00000000000000000000000000000000000000000000000000000000081526004016111019061260b565b60405180910390fd5b6002600560006101000a81548160ff021916908360058111156111305761112f611ccc565b5b02179055507f0a97a4ee45751e2abf3e4fc8946939630b11b371ea8ae39ccdc3056e98f5cc3f60016002604051611168929190612411565b60405180910390a1565b61117a611932565b600660003373ffffffffffffffffffffffffffffffffffffffff1673ffffffffffffffffffffffffffffffffffffffff16815260200190815260200160002060000160009054906101000a900460ff16611209576040517f08c379a000000000000000000000000000000000000000000000000000000000815260040161120090611f1f565b60405180910390fd5b600660008373ffffffffffffffffffffffffffffffffffffffff1673ffffffffffffffffffffffffffffffffffffffff1681526020019081526020016000206040518060600160405290816000820160009054906101000a900460ff161515151581526020016000820160019054906101000a900460ff161515151581526020016001820154815250509050919050565b6112a26117c6565b73ffffffffffffffffffffffffffffffffffffffff166112c0610a6e565b73ffffffffffffffffffffffffffffffffffffffff1614611316576040517f08c379a000000000000000000000000000000000000000000000000000000000815260040161130d9061235f565b60405180910390fd5b6002600581111561132a57611329611ccc565b5b600560009054906101000a900460ff16600581111561134c5761134b611ccc565b5b1461138c576040517f08c379a00000000000000000000000000000000000000000000000000000000081526004016113839061269d565b60405180910390fd5b6003600560006101000a81548160ff021916908360058111156113b2576113b1611ccc565b5b02179055507f0a97a4ee45751e2abf3e4fc8946939630b11b371ea8ae39ccdc3056e98f5cc3f600260036040516113ea929190612411565b60405180910390a1565b6113fc6117c6565b73ffffffffffffffffffffffffffffffffffffffff1661141a610a6e565b73ffffffffffffffffffffffffffffffffffffffff1614611470576040517f08c379a00000000000000000000000000000000000000000000000000000000081526004016114679061235f565b60405180910390fd5b600073ffffffffffffffffffffffffffffffffffffffff168173ffffffffffffffffffffffffffffffffffffffff1614156114e0576040517f08c379a00000000000000000000000000000000000000000000000000000000081526004016114d79061272f565b60405180910390fd5b6114e9816117ce565b50565b6114f46117c6565b73ffffffffffffffffffffffffffffffffffffffff16611512610a6e565b73ffffffffffffffffffffffffffffffffffffffff1614611568576040517f08c379a000000000000000000000000000000000000000000000000000000000815260040161155f9061235f565b60405180910390fd5b6000600581111561157c5761157b611ccc565b5b600560009054906101000a900460ff16600581111561159e5761159d611ccc565b5b146115de576040517f08c379a00000000000000000000000000000000000000000000000000000000081526004016115d5906127c1565b60405180910390fd5b60011515600660008373ffffffffffffffffffffffffffffffffffffffff1673ffffffffffffffffffffffffffffffffffffffff16815260200190815260200160002060000160009054906101000a900460ff1615151415611675576040517f08c379a000000000000000000000000000000000000000000000000000000000815260040161166c9061282d565b60405180910390fd5b6001600660008373ffffffffffffffffffffffffffffffffffffffff1673ffffffffffffffffffffffffffffffffffffffff16815260200190815260200160002060000160006101000a81548160ff0219169083151502179055507fb6be2187d059cc2a55fe29e0e503b566e1e0f8c8780096e185429350acffd3dd816040516116ff9190611bbb565b60405180910390a150565b6004818154811061171a57600080fd5b906000526020600020906002020160009150905080600001805461173d906124d5565b80601f0160208091040260200160405190810160405280929190818152602001828054611769906124d5565b80156117b65780601f1061178b576101008083540402835291602001916117b6565b820191906000526020600020905b81548152906001019060200180831161179957829003601f168201915b5050505050908060010154905082565b600033905090565b60008060009054906101000a900473ffffffffffffffffffffffffffffffffffffffff169050816000806101000a81548173ffffffffffffffffffffffffffffffffffffffff021916908373ffffffffffffffffffffffffffffffffffffffff1602179055508173ffffffffffffffffffffffffffffffffffffffff168173ffffffffffffffffffffffffffffffffffffffff167f8be0079c531659141344cd1fd0a4f28419497f9722a3daafe3b4186f6b6457e060405160405180910390a35050565b604051806040016040528060608152602001600081525090565b8280546118b8906124d5565b90600052602060002090601f0160209004810192826118da5760008555611921565b82601f106118f357805160ff1916838001178555611921565b82800160010185558215611921579182015b82811115611920578251825591602001919060010190611905565b5b50905061192e9190611957565b5090565b6040518060600160405280600015158152602001600015158152602001600081525090565b5b80821115611970576000816000905550600101611958565b5090565b6000604051905090565b600080fd5b600080fd5b6000819050919050565b61199b81611988565b81146119a657600080fd5b50565b6000813590506119b881611992565b92915050565b6000602082840312156119d4576119d361197e565b5b60006119e2848285016119a9565b91505092915050565b600080fd5b600080fd5b6000601f19601f8301169050919050565b7f4e487b7100000000000000000000000000000000000000000000000000000000600052604160045260246000fd5b611a3e826119f5565b810181811067ffffffffffffffff82111715611a5d57611a5c611a06565b5b80604052505050565b6000611a70611974565b9050611a7c8282611a35565b919050565b600067ffffffffffffffff821115611a9c57611a9b611a06565b5b611aa5826119f5565b9050602081019050919050565b82818337600083830152505050565b6000611ad4611acf84611a81565b611a66565b905082815260208101848484011115611af057611aef6119f0565b5b611afb848285611ab2565b509392505050565b600082601f830112611b1857611b176119eb565b5b8135611b28848260208601611ac1565b91505092915050565b600060208284031215611b4757611b4661197e565b5b600082013567ffffffffffffffff811115611b6557611b64611983565b5b611b7184828501611b03565b91505092915050565b600073ffffffffffffffffffffffffffffffffffffffff82169050919050565b6000611ba582611b7a565b9050919050565b611bb581611b9a565b82525050565b6000602082019050611bd06000830184611bac565b92915050565b600081519050919050565b600082825260208201905092915050565b60005b83811015611c10578082015181840152602081019050611bf5565b83811115611c1f576000848401525b50505050565b6000611c3082611bd6565b611c3a8185611be1565b9350611c4a818560208601611bf2565b611c53816119f5565b840191505092915050565b611c6781611988565b82525050565b60006040830160008301518482036000860152611c8a8282611c25565b9150506020830151611c9f6020860182611c5e565b508091505092915050565b60006020820190508181036000830152611cc48184611c6d565b905092915050565b7f4e487b7100000000000000000000000000000000000000000000000000000000600052602160045260246000fd5b60068110611d0c57611d0b611ccc565b5b50565b6000819050611d1d82611cfb565b919050565b6000611d2d82611d0f565b9050919050565b611d3d81611d22565b82525050565b6000602082019050611d586000830184611d34565b92915050565b611d6781611988565b82525050565b6000602082019050611d826000830184611d5e565b92915050565b611d9181611b9a565b8114611d9c57600080fd5b50565b600081359050611dae81611d88565b92915050565b600060208284031215611dca57611dc961197e565b5b6000611dd884828501611d9f565b91505092915050565b60008115159050919050565b611df681611de1565b82525050565b606082016000820151611e126000850182611ded565b506020820151611e256020850182611ded565b506040820151611e386040850182611c5e565b50505050565b6000606082019050611e536000830184611dfc565b92915050565b600082825260208201905092915050565b6000611e7582611bd6565b611e7f8185611e59565b9350611e8f818560208601611bf2565b611e98816119f5565b840191505092915050565b60006040820190508181036000830152611ebd8185611e6a565b9050611ecc6020830184611d5e565b9392505050565b7f596f75277265206e6f74206120766f7465720000000000000000000000000000600082015250565b6000611f09601283611e59565b9150611f1482611ed3565b602082019050919050565b60006020820190508181036000830152611f3881611efc565b9050919050565b7f566f74696e672073657373696f6e20686176656e74207374617274656420796560008201527f7400000000000000000000000000000000000000000000000000000000000000602082015250565b6000611f9b602183611e59565b9150611fa682611f3f565b604082019050919050565b60006020820190508181036000830152611fca81611f8e565b9050919050565b7f596f75206861766520616c726561647920766f74656400000000000000000000600082015250565b6000612007601683611e59565b915061201282611fd1565b602082019050919050565b6000602082019050818103600083015261203681611ffa565b9050919050565b7f50726f706f73616c206e6f7420666f756e640000000000000000000000000000600082015250565b6000612073601283611e59565b915061207e8261203d565b602082019050919050565b600060208201905081810360008301526120a281612066565b9050919050565b7f4e487b7100000000000000000000000000000000000000000000000000000000600052603260045260246000fd5b7f4e487b7100000000000000000000000000000000000000000000000000000000600052601160045260246000fd5b600061211282611988565b91507fffffffffffffffffffffffffffffffffffffffffffffffffffffffffffffffff821415612145576121446120d8565b5b600182019050919050565b60006040820190506121656000830185611bac565b6121726020830184611d5e565b9392505050565b7f50726f706f73616c7320617265206e6f7420616c6c6f77656420796574000000600082015250565b60006121af601d83611e59565b91506121ba82612179565b602082019050919050565b600060208201905081810360008301526121de816121a2565b9050919050565b50565b60006121f5600083611e59565b9150612200826121e5565b600082019050919050565b60006020820190508181036000830152612224816121e8565b9050919050565b600060208201905081810360008301526122458184611e6a565b905092915050565b7f566f7573206e6520706f7576657a20706173206e65207269656e2070726f706f60008201527f7365720000000000000000000000000000000000000000000000000000000000602082015250565b60006122a9602383611e59565b91506122b48261224d565b604082019050919050565b600060208201905081810360008301526122d88161229c565b9050919050565b60006122ea82611988565b91506122f583611988565b925082821015612308576123076120d8565b5b828203905092915050565b7f4f776e61626c653a2063616c6c6572206973206e6f7420746865206f776e6572600082015250565b6000612349602083611e59565b915061235482612313565b602082019050919050565b600060208201905081810360008301526123788161233c565b9050919050565b7f43757272656e7420737461747573206973206e6f7420766f74696e672073657360008201527f73696f6e20656e64656400000000000000000000000000000000000000000000602082015250565b60006123db602a83611e59565b91506123e68261237f565b604082019050919050565b6000602082019050818103600083015261240a816123ce565b9050919050565b60006040820190506124266000830185611d34565b6124336020830184611d34565b9392505050565b7f566f74657320617265206e6f742074616c6c6965642079657400000000000000600082015250565b6000612470601983611e59565b915061247b8261243a565b602082019050919050565b6000602082019050818103600083015261249f81612463565b9050919050565b7f4e487b7100000000000000000000000000000000000000000000000000000000600052602260045260246000fd5b600060028204905060018216806124ed57607f821691505b60208210811415612501576125006124a6565b5b50919050565b7f5265676973746572696e672070726f706f73616c732063616e7420626520737460008201527f6172746564206e6f770000000000000000000000000000000000000000000000602082015250565b6000612563602983611e59565b915061256e82612507565b604082019050919050565b6000602082019050818103600083015261259281612556565b9050919050565b7f5265676973746572696e672070726f706f73616c7320686176656e742073746160008201527f7274656420796574000000000000000000000000000000000000000000000000602082015250565b60006125f5602883611e59565b915061260082612599565b604082019050919050565b60006020820190508181036000830152612624816125e8565b9050919050565b7f5265676973746572696e672070726f706f73616c73207068617365206973206e60008201527f6f742066696e6973686564000000000000000000000000000000000000000000602082015250565b6000612687602b83611e59565b91506126928261262b565b604082019050919050565b600060208201905081810360008301526126b68161267a565b9050919050565b7f4f776e61626c653a206e6577206f776e657220697320746865207a65726f206160008201527f6464726573730000000000000000000000000000000000000000000000000000602082015250565b6000612719602683611e59565b9150612724826126bd565b604082019050919050565b600060208201905081810360008301526127488161270c565b9050919050565b7f566f7465727320726567697374726174696f6e206973206e6f74206f70656e2060008201527f7965740000000000000000000000000000000000000000000000000000000000602082015250565b60006127ab602383611e59565b91506127b68261274f565b604082019050919050565b600060208201905081810360008301526127da8161279e565b9050919050565b7f416c726561647920726567697374657265640000000000000000000000000000600082015250565b6000612817601283611e59565b9150612822826127e1565b602082019050919050565b600060208201905081810360008301526128468161280a565b905091905056fea2646970667358221220cb45025548fcca2faedfcb07c123b653aca09c7ce309eef703a91bc8e1ec734c64736f6c63430008090033",
  "immutableReferences": {},
  "source": "// SPDX-License-Identifier: MIT\npragma solidity ^0.8.7;\n\nimport \"@openzeppelin/contracts/access/Ownable.sol\";\n\n/**\n * @title Voting Defi Contract\n * @notice Protocol to enable users to create and vote on proposals\n * @author Fabien Frick\n */\ncontract Voting is Ownable {\n    // Contract ordering structure\n    // 1. State variables\n    // 2. Events\n    // 3. Function Modifiers\n    // 4. Struct, Arrays or Enums\n    // 5. Constructor\n    // 6. Fallback  Receive function\n    // 7. External visible functions\n    // 8. Public visible functions\n    // 9. Internal visible functions\n    // 10. Private visible functions\n\n    // 1. State variables\n\n    /**\n     * @notice Winning proposal id\n     */\n    uint256 public winningProposalId;\n\n    // arrays used in case of draw\n    uint256[] winningProposalsID;\n    Proposal[] winningProposals;\n\n    /**\n     * @notice Proposals array\n     */\n    Proposal[] public proposalsArray;\n\n    /**\n     * @notice Workflow status\n     */\n    WorkflowStatus public workflowStatus;\n\n    // 2. Events\n\n    /**\n     * @notice Signals when voter is registered\n     * @param _voterAddress The voter address registered\n     */\n    event VoterRegistered(address _voterAddress);\n\n    /**\n     * @notice Signals when workflow status changes\n     * @param _previousStatus The previous status\n     * @param _newStatus The new status\n     */\n    event WorkflowStatusChange(\n        WorkflowStatus _previousStatus,\n        WorkflowStatus _newStatus\n    );\n\n    /**\n     * @notice Signals when a proposal is registered\n     * @param _proposalId proposal id\n     */\n    event ProposalRegistered(uint256 _proposalId);\n\n    /**\n     * @notice Signals when a voter vote for a proposal\n     * @param _voter proposal address\n     * @param _proposalId proposal id\n     */\n    event Voted(address _voter, uint256 _proposalId);\n\n    // 3. modifiers\n    /**\n     * @notice Only registered voters can access\n     */\n    modifier onlyVoters() {\n        require(voters[msg.sender].isRegistered, \"You're not a voter\");\n        _;\n    }\n    // on peut faire un modifier pour les tats\n\n    // 4. Struct ....\n    /**\n     * @notice Voter struct\n     */\n    struct Voter {\n        bool isRegistered;\n        bool hasVoted;\n        uint256 votedProposalId;\n    }\n\n    /**\n     * @notice Proposal struct\n     */\n    struct Proposal {\n        string description;\n        uint256 voteCount;\n    }\n\n    /**\n     * @notice WorkflowStatus enum\n     */\n    enum WorkflowStatus {\n        RegisteringVoters,\n        ProposalsRegistrationStarted,\n        ProposalsRegistrationEnded,\n        VotingSessionStarted,\n        VotingSessionEnded,\n        VotesTallied\n    }\n\n    /**\n     * @notice Internal voters mapping\n     */\n    mapping(address => Voter) private voters;\n\n    // 5. Constructor\n    // 6. Fallback  Receive function\n    // 7. External visible functions\n    // ::::::::::::: GETTERS ::::::::::::: //\n\n    /**\n     * @notice Returns Voter information. Only available for registered voters\n     * @param _addr Voter address\n     */\n    function getVoter(address _addr)\n        external\n        view\n        onlyVoters\n        returns (Voter memory)\n    {\n        return voters[_addr];\n    }\n\n    /**\n     * @notice Returns a Proposal\n     * @param _id Voter address\n     */\n    function getOneProposal(uint256 _id)\n        external\n        view\n        onlyVoters\n        returns (Proposal memory)\n    {\n        return proposalsArray[_id];\n    }\n\n    /**\n     * @notice Returns the winning Proposal\n     */\n    function getWinner() external view returns (Proposal memory) {\n        require(\n            workflowStatus == WorkflowStatus.VotesTallied,\n            \"Votes are not tallied yet\"\n        );\n        return proposalsArray[winningProposalId];\n    }\n\n    // ::::::::::::: REGISTRATION ::::::::::::: //\n\n    /**\n     * @notice Register an address as Voter\n     * @param _addr Address to register as a Voter\n     */\n    function addVoter(address _addr) external onlyOwner {\n        require(\n            workflowStatus == WorkflowStatus.RegisteringVoters,\n            \"Voters registration is not open yet\"\n        );\n        require(voters[_addr].isRegistered != true, \"Already registered\");\n\n        voters[_addr].isRegistered = true;\n        emit VoterRegistered(_addr);\n    }\n\n    /* facultatif\n     * function deleteVoter(address _addr) external onlyOwner {\n     *   require(workflowStatus == WorkflowStatus.RegisteringVoters, 'Voters registration is not open yet');\n     *   require(voters[_addr].isRegistered == true, 'Not registered.');\n     *   voters[_addr].isRegistered = false;\n     *  emit VoterRegistered(_addr);\n    }*/\n\n    // ::::::::::::: PROPOSAL ::::::::::::: //\n\n    /**\n     * @notice Add a proposal. Only voters can do it.\n     * @param _desc Description of the proposal\n     */\n    function addProposal(string memory _desc) external onlyVoters {\n        require(\n            workflowStatus == WorkflowStatus.ProposalsRegistrationStarted,\n            \"Proposals are not allowed yet\"\n        );\n        require(\n            keccak256(abi.encode(_desc)) != keccak256(abi.encode(\"\")),\n            \"Vous ne pouvez pas ne rien proposer\"\n        ); // facultatif\n        // voir que desc est different des autres\n\n        Proposal memory proposal;\n        proposal.description = _desc;\n        proposalsArray.push(proposal);\n        emit ProposalRegistered(proposalsArray.length - 1);\n    }\n\n    // ::::::::::::: VOTE ::::::::::::: //\n\n    /**\n     * @notice Vote for a proposal. Only voters can do it.\n     * @param _id Id of the proposal\n     */\n    function setVote(uint256 _id) external onlyVoters {\n        require(\n            workflowStatus == WorkflowStatus.VotingSessionStarted,\n            \"Voting session havent started yet\"\n        );\n        require(voters[msg.sender].hasVoted != true, \"You have already voted\");\n        require(_id <= proposalsArray.length, \"Proposal not found\"); // pas oblig, et pas besoin du >0 car uint\n\n        voters[msg.sender].votedProposalId = _id;\n        voters[msg.sender].hasVoted = true;\n        proposalsArray[_id].voteCount++;\n\n        emit Voted(msg.sender, _id);\n    }\n\n    // ::::::::::::: STATE ::::::::::::: //\n\n    /**\n     * @notice Starts proposals registration. Updates workflow status to ProposalsRegistrationStarted. Only owner.\n     */\n    function startProposalsRegistering() external onlyOwner {\n        require(\n            workflowStatus == WorkflowStatus.RegisteringVoters,\n            \"Registering proposals cant be started now\"\n        );\n        workflowStatus = WorkflowStatus.ProposalsRegistrationStarted;\n        emit WorkflowStatusChange(\n            WorkflowStatus.RegisteringVoters,\n            WorkflowStatus.ProposalsRegistrationStarted\n        );\n    }\n\n    /**\n     * @notice Ends proposals registration. Updates workflow status to ProposalsRegistrationEnded. Only owner.\n     */\n    function endProposalsRegistering() external onlyOwner {\n        require(\n            workflowStatus == WorkflowStatus.ProposalsRegistrationStarted,\n            \"Registering proposals havent started yet\"\n        );\n        workflowStatus = WorkflowStatus.ProposalsRegistrationEnded;\n        emit WorkflowStatusChange(\n            WorkflowStatus.ProposalsRegistrationStarted,\n            WorkflowStatus.ProposalsRegistrationEnded\n        );\n    }\n\n    /**\n     * @notice Starts voting session. Updates workflow status to VotingSessionStarted. Only owner.\n     */\n    function startVotingSession() external onlyOwner {\n        require(\n            workflowStatus == WorkflowStatus.ProposalsRegistrationEnded,\n            \"Registering proposals phase is not finished\"\n        );\n        workflowStatus = WorkflowStatus.VotingSessionStarted;\n        emit WorkflowStatusChange(\n            WorkflowStatus.ProposalsRegistrationEnded,\n            WorkflowStatus.VotingSessionStarted\n        );\n    }\n\n    /**\n     * @notice Ends voting session. Updates workflow status to VotingSessionEnded. Only owner.\n     */\n    function endVotingSession() external onlyOwner {\n        require(\n            workflowStatus == WorkflowStatus.VotingSessionStarted,\n            \"Voting session havent started yet\"\n        );\n        workflowStatus = WorkflowStatus.VotingSessionEnded;\n        emit WorkflowStatusChange(\n            WorkflowStatus.VotingSessionStarted,\n            WorkflowStatus.VotingSessionEnded\n        );\n    }\n\n    /**\n     * @notice Tally votes and set the winning proposal. Only owner.\n     */\n    function tallyVotes() external onlyOwner {\n        require(\n            workflowStatus == WorkflowStatus.VotingSessionEnded,\n            \"Current status is not voting session ended\"\n        );\n        uint256 _winningProposalId;\n        for (uint256 p = 0; p < proposalsArray.length; p++) {\n            if (\n                proposalsArray[p].voteCount >\n                proposalsArray[_winningProposalId].voteCount\n            ) {\n                _winningProposalId = p;\n            }\n        }\n        winningProposalId = _winningProposalId;\n        workflowStatus = WorkflowStatus.VotesTallied;\n        emit WorkflowStatusChange(\n            WorkflowStatus.VotingSessionEnded,\n            WorkflowStatus.VotesTallied\n        );\n    }\n\n    // 8. Public visible functions\n    // 9. Internal visible functions\n    // 10. Private visible functions\n}\n",
  "sourcePath": "/home/fabien/alyra/Voting/contracts/Voting.sol",
  "compiler": {
    "name": "solc",
    "version": "0.8.9+commit.e5eed63a.Emscripten.clang"
  },
  "schemaVersion": "3.4.3",
  "updatedAt": "2021-11-29T15:37:35.993Z",
  "networkType": "ethereum",
  "devdoc": {
    "author": "Fabien Frick",
    "events": {
      "ProposalRegistered(uint256)": {
        "params": {
          "_proposalId": "proposal id"
        }
      },
      "Voted(address,uint256)": {
        "params": {
          "_proposalId": "proposal id",
          "_voter": "proposal address"
        }
      },
      "VoterRegistered(address)": {
        "params": {
          "_voterAddress": "The voter address registered"
        }
      },
      "WorkflowStatusChange(uint8,uint8)": {
        "params": {
          "_newStatus": "The new status",
          "_previousStatus": "The previous status"
        }
      }
    },
    "kind": "dev",
    "methods": {
      "addProposal(string)": {
        "params": {
          "_desc": "Description of the proposal"
        }
      },
      "addVoter(address)": {
        "params": {
          "_addr": "Address to register as a Voter"
        }
      },
      "getOneProposal(uint256)": {
        "params": {
          "_id": "Voter address"
        }
      },
      "getVoter(address)": {
        "params": {
          "_addr": "Voter address"
        }
      },
      "owner()": {
        "details": "Returns the address of the current owner."
      },
      "renounceOwnership()": {
        "details": "Leaves the contract without owner. It will not be possible to call `onlyOwner` functions anymore. Can only be called by the current owner. NOTE: Renouncing ownership will leave the contract without an owner, thereby removing any functionality that is only available to the owner."
      },
      "setVote(uint256)": {
        "params": {
          "_id": "Id of the proposal"
        }
      },
      "transferOwnership(address)": {
        "details": "Transfers ownership of the contract to a new account (`newOwner`). Can only be called by the current owner."
      }
    },
    "title": "Voting Defi Contract",
    "version": 1
  },
  "userdoc": {
    "events": {
      "ProposalRegistered(uint256)": {
        "notice": "Signals when a proposal is registered"
      },
      "Voted(address,uint256)": {
        "notice": "Signals when a voter vote for a proposal"
      },
      "VoterRegistered(address)": {
        "notice": "Signals when voter is registered"
      },
      "WorkflowStatusChange(uint8,uint8)": {
        "notice": "Signals when workflow status changes"
      }
    },
    "kind": "user",
    "methods": {
      "addProposal(string)": {
        "notice": "Add a proposal. Only voters can do it."
      },
      "addVoter(address)": {
        "notice": "Register an address as Voter"
      },
      "endProposalsRegistering()": {
        "notice": "Ends proposals registration. Updates workflow status to ProposalsRegistrationEnded. Only owner."
      },
      "endVotingSession()": {
        "notice": "Ends voting session. Updates workflow status to VotingSessionEnded. Only owner."
      },
      "getOneProposal(uint256)": {
        "notice": "Returns a Proposal"
      },
      "getVoter(address)": {
        "notice": "Returns Voter information. Only available for registered voters"
      },
      "getWinner()": {
        "notice": "Returns the winning Proposal"
      },
      "proposalsArray(uint256)": {
        "notice": "Proposals array"
      },
      "setVote(uint256)": {
        "notice": "Vote for a proposal. Only voters can do it."
      },
      "startProposalsRegistering()": {
        "notice": "Starts proposals registration. Updates workflow status to ProposalsRegistrationStarted. Only owner."
      },
      "startVotingSession()": {
        "notice": "Starts voting session. Updates workflow status to VotingSessionStarted. Only owner."
      },
      "tallyVotes()": {
        "notice": "Tally votes and set the winning proposal. Only owner."
      },
      "winningProposalId()": {
        "notice": "Winning proposal id"
      },
      "workflowStatus()": {
        "notice": "Workflow status"
      }
    },
    "notice": "Protocol to enable users to create and vote on proposals",
    "version": 1
  }
}